{
  "_format": "hh-sol-artifact-1",
  "contractName": "MultichainNFT",
  "sourceName": "contracts/MultichainNFT.sol",
  "abi": [
    {
      "inputs": [
        {
          "internalType": "string",
          "name": "_name",
          "type": "string"
        },
        {
          "internalType": "string",
          "name": "_symbol",
          "type": "string"
        }
      ],
      "stateMutability": "nonpayable",
      "type": "constructor"
    },
    {
      "anonymous": false,
      "inputs": [
        {
          "indexed": true,
          "internalType": "address",
          "name": "owner",
          "type": "address"
        },
        {
          "indexed": true,
          "internalType": "address",
          "name": "approved",
          "type": "address"
        },
        {
          "indexed": true,
          "internalType": "uint256",
          "name": "tokenId",
          "type": "uint256"
        }
      ],
      "name": "Approval",
      "type": "event"
    },
    {
      "anonymous": false,
      "inputs": [
        {
          "indexed": true,
          "internalType": "address",
          "name": "owner",
          "type": "address"
        },
        {
          "indexed": true,
          "internalType": "address",
          "name": "operator",
          "type": "address"
        },
        {
          "indexed": false,
          "internalType": "bool",
          "name": "approved",
          "type": "bool"
        }
      ],
      "name": "ApprovalForAll",
      "type": "event"
    },
    {
      "anonymous": false,
      "inputs": [
        {
          "indexed": false,
          "internalType": "address",
          "name": "receiver",
          "type": "address"
        },
        {
          "indexed": false,
          "internalType": "uint16",
          "name": "target",
          "type": "uint16"
        },
        {
          "indexed": false,
          "internalType": "uint256",
          "name": "tokenId",
          "type": "uint256"
        }
      ],
      "name": "BridgeRequest",
      "type": "event"
    },
    {
      "anonymous": false,
      "inputs": [
        {
          "indexed": false,
          "internalType": "uint16",
          "name": "_srcChainId",
          "type": "uint16"
        },
        {
          "indexed": false,
          "internalType": "bytes",
          "name": "_srcAddress",
          "type": "bytes"
        },
        {
          "indexed": false,
          "internalType": "uint64",
          "name": "_nonce",
          "type": "uint64"
        },
        {
          "indexed": false,
          "internalType": "bytes",
          "name": "_payload",
          "type": "bytes"
        }
      ],
      "name": "MessageFailed",
      "type": "event"
    },
    {
      "anonymous": false,
      "inputs": [
        {
          "indexed": true,
          "internalType": "address",
          "name": "previousOwner",
          "type": "address"
        },
        {
          "indexed": true,
          "internalType": "address",
          "name": "newOwner",
          "type": "address"
        }
      ],
      "name": "OwnershipTransferred",
      "type": "event"
    },
    {
      "anonymous": false,
      "inputs": [
        {
          "indexed": false,
          "internalType": "uint16",
          "name": "_srcChainId",
          "type": "uint16"
        },
        {
          "indexed": false,
          "internalType": "address",
          "name": "_from",
          "type": "address"
        },
        {
          "indexed": false,
          "internalType": "uint256",
          "name": "_tokenId",
          "type": "uint256"
        }
      ],
      "name": "ReceiveNFT",
      "type": "event"
    },
    {
      "anonymous": false,
      "inputs": [
        {
          "indexed": true,
          "internalType": "address",
          "name": "from",
          "type": "address"
        },
        {
          "indexed": true,
          "internalType": "address",
          "name": "to",
          "type": "address"
        },
        {
          "indexed": true,
          "internalType": "uint256",
          "name": "tokenId",
          "type": "uint256"
        }
      ],
      "name": "Transfer",
      "type": "event"
    },
    {
      "inputs": [
        {
          "internalType": "address",
          "name": "to",
          "type": "address"
        },
        {
          "internalType": "uint256",
          "name": "tokenId",
          "type": "uint256"
        }
      ],
      "name": "approve",
      "outputs": [],
      "stateMutability": "nonpayable",
      "type": "function"
    },
    {
      "inputs": [
        {
          "internalType": "address",
          "name": "owner",
          "type": "address"
        }
      ],
      "name": "balanceOf",
      "outputs": [
        {
          "internalType": "uint256",
          "name": "",
          "type": "uint256"
        }
      ],
      "stateMutability": "view",
      "type": "function"
    },
    {
      "inputs": [],
      "name": "bridger",
      "outputs": [
        {
          "internalType": "address",
          "name": "",
          "type": "address"
        }
      ],
      "stateMutability": "view",
      "type": "function"
    },
    {
      "inputs": [
        {
          "internalType": "address",
          "name": "_bridger",
          "type": "address"
        }
      ],
      "name": "bridgerAddress",
      "outputs": [],
      "stateMutability": "nonpayable",
      "type": "function"
    },
    {
      "inputs": [
        {
          "internalType": "uint16",
          "name": "_dstChainId",
          "type": "uint16"
        },
        {
          "internalType": "address",
          "name": "_userApplication",
          "type": "address"
        },
        {
          "internalType": "bytes",
          "name": "_payload",
          "type": "bytes"
        },
        {
          "internalType": "bool",
          "name": "_payInZRO",
          "type": "bool"
        },
        {
          "internalType": "bytes",
          "name": "_adapterParams",
          "type": "bytes"
        }
      ],
      "name": "estimateFees",
      "outputs": [
        {
          "internalType": "uint256",
          "name": "nativeFee",
          "type": "uint256"
        },
        {
          "internalType": "uint256",
          "name": "zroFee",
          "type": "uint256"
        }
      ],
      "stateMutability": "view",
      "type": "function"
    },
    {
      "inputs": [
        {
          "internalType": "uint16",
          "name": "",
          "type": "uint16"
        },
        {
          "internalType": "bytes",
          "name": "",
          "type": "bytes"
        },
        {
          "internalType": "uint256",
          "name": "",
          "type": "uint256"
        }
      ],
      "name": "failedMessages",
      "outputs": [
        {
          "internalType": "uint256",
          "name": "payloadLength",
          "type": "uint256"
        },
        {
          "internalType": "bytes32",
          "name": "payloadHash",
          "type": "bytes32"
        }
      ],
      "stateMutability": "view",
      "type": "function"
    },
    {
      "inputs": [
        {
          "internalType": "uint16",
          "name": "",
          "type": "uint16"
        }
      ],
      "name": "gasCosts",
      "outputs": [
        {
          "internalType": "uint256",
          "name": "",
          "type": "uint256"
        }
      ],
      "stateMutability": "view",
      "type": "function"
    },
    {
      "inputs": [
        {
          "internalType": "uint256",
          "name": "tokenId",
          "type": "uint256"
        }
      ],
      "name": "getApproved",
      "outputs": [
        {
          "internalType": "address",
          "name": "",
          "type": "address"
        }
      ],
      "stateMutability": "view",
      "type": "function"
    },
    {
      "inputs": [
        {
          "internalType": "bytes32",
          "name": "",
          "type": "bytes32"
        }
      ],
      "name": "handledMessages",
      "outputs": [
        {
          "internalType": "bool",
          "name": "",
          "type": "bool"
        }
      ],
      "stateMutability": "view",
      "type": "function"
    },
    {
      "inputs": [
        {
          "internalType": "address",
          "name": "owner",
          "type": "address"
        },
        {
          "internalType": "address",
          "name": "operator",
          "type": "address"
        }
      ],
      "name": "isApprovedForAll",
      "outputs": [
        {
          "internalType": "bool",
          "name": "",
          "type": "bool"
        }
      ],
      "stateMutability": "view",
      "type": "function"
    },
    {
      "inputs": [
        {
          "internalType": "uint16",
          "name": "_srcChainId",
          "type": "uint16"
        },
        {
          "internalType": "bytes",
          "name": "_srcAddress",
          "type": "bytes"
        },
        {
          "internalType": "uint64",
          "name": "_nonce",
          "type": "uint64"
        },
        {
          "internalType": "bytes",
          "name": "_payload",
          "type": "bytes"
        }
      ],
      "name": "lzReceive",
      "outputs": [],
      "stateMutability": "nonpayable",
      "type": "function"
    },
    {
      "inputs": [
        {
          "internalType": "address",
          "name": "receiver",
          "type": "address"
        },
        {
          "internalType": "uint256",
          "name": "_tokenId",
          "type": "uint256"
        }
      ],
      "name": "mint",
      "outputs": [],
      "stateMutability": "nonpayable",
      "type": "function"
    },
    {
      "inputs": [],
      "name": "name",
      "outputs": [
        {
          "internalType": "string",
          "name": "",
          "type": "string"
        }
      ],
      "stateMutability": "view",
      "type": "function"
    },
    {
      "inputs": [
        {
          "internalType": "uint16",
          "name": "_srcChainId",
          "type": "uint16"
        },
        {
          "internalType": "bytes",
          "name": "_srcAddress",
          "type": "bytes"
        },
        {
          "internalType": "uint64",
          "name": "_nonce",
          "type": "uint64"
        },
        {
          "internalType": "bytes",
          "name": "_payload",
          "type": "bytes"
        }
      ],
      "name": "onLzReceive",
      "outputs": [],
      "stateMutability": "nonpayable",
      "type": "function"
    },
    {
      "inputs": [],
      "name": "owner",
      "outputs": [
        {
          "internalType": "address",
          "name": "",
          "type": "address"
        }
      ],
      "stateMutability": "view",
      "type": "function"
    },
    {
      "inputs": [
        {
          "internalType": "uint256",
          "name": "tokenId",
          "type": "uint256"
        }
      ],
      "name": "ownerOf",
      "outputs": [
        {
          "internalType": "address",
          "name": "",
          "type": "address"
        }
      ],
      "stateMutability": "view",
      "type": "function"
    },
    {
      "inputs": [
        {
          "internalType": "bytes32",
          "name": "_msgId",
          "type": "bytes32"
        },
        {
          "internalType": "address",
          "name": "_receiver",
          "type": "address"
        },
        {
          "internalType": "uint256",
          "name": "_tokenId",
          "type": "uint256"
        }
      ],
      "name": "projectReceive",
      "outputs": [],
      "stateMutability": "nonpayable",
      "type": "function"
    },
    {
      "inputs": [
        {
          "internalType": "uint16",
          "name": "_target",
          "type": "uint16"
        },
        {
          "internalType": "uint256",
          "name": "_tokenId",
          "type": "uint256"
        }
      ],
      "name": "projectTraverseChains",
      "outputs": [],
      "stateMutability": "payable",
      "type": "function"
    },
    {
      "inputs": [],
      "name": "renounceOwnership",
      "outputs": [],
      "stateMutability": "nonpayable",
      "type": "function"
    },
    {
      "inputs": [
        {
          "internalType": "uint16",
          "name": "_srcChainId",
          "type": "uint16"
        },
        {
          "internalType": "bytes",
          "name": "_srcAddress",
          "type": "bytes"
        },
        {
          "internalType": "uint64",
          "name": "_nonce",
          "type": "uint64"
        },
        {
          "internalType": "bytes",
          "name": "_payload",
          "type": "bytes"
        }
      ],
      "name": "retryMessage",
      "outputs": [],
      "stateMutability": "payable",
      "type": "function"
    },
    {
      "inputs": [
        {
          "internalType": "address",
          "name": "from",
          "type": "address"
        },
        {
          "internalType": "address",
          "name": "to",
          "type": "address"
        },
        {
          "internalType": "uint256",
          "name": "tokenId",
          "type": "uint256"
        }
      ],
      "name": "safeTransferFrom",
      "outputs": [],
      "stateMutability": "nonpayable",
      "type": "function"
    },
    {
      "inputs": [
        {
          "internalType": "address",
          "name": "from",
          "type": "address"
        },
        {
          "internalType": "address",
          "name": "to",
          "type": "address"
        },
        {
          "internalType": "uint256",
          "name": "tokenId",
          "type": "uint256"
        },
        {
          "internalType": "bytes",
          "name": "_data",
          "type": "bytes"
        }
      ],
      "name": "safeTransferFrom",
      "outputs": [],
      "stateMutability": "nonpayable",
      "type": "function"
    },
    {
      "inputs": [
        {
          "internalType": "address",
          "name": "operator",
          "type": "address"
        },
        {
          "internalType": "bool",
          "name": "approved",
          "type": "bool"
        }
      ],
      "name": "setApprovalForAll",
      "outputs": [],
      "stateMutability": "nonpayable",
      "type": "function"
    },
    {
      "inputs": [
        {
          "internalType": "string",
          "name": "_base",
          "type": "string"
        }
      ],
      "name": "setBaseURI",
      "outputs": [],
      "stateMutability": "nonpayable",
      "type": "function"
    },
    {
      "inputs": [
        {
          "internalType": "address",
          "name": "_endpoint",
          "type": "address"
        }
      ],
      "name": "setEndpoint",
      "outputs": [],
      "stateMutability": "nonpayable",
      "type": "function"
    },
    {
      "inputs": [
        {
          "internalType": "uint256",
          "name": "_gas",
          "type": "uint256"
        }
      ],
      "name": "setGas",
      "outputs": [],
      "stateMutability": "nonpayable",
      "type": "function"
    },
    {
      "inputs": [
        {
          "internalType": "uint16",
          "name": "_target",
          "type": "uint16"
        },
        {
          "internalType": "uint256",
          "name": "_gas",
          "type": "uint256"
        }
      ],
      "name": "setGasCosts",
      "outputs": [],
      "stateMutability": "nonpayable",
      "type": "function"
    },
    {
      "inputs": [
        {
          "internalType": "bool",
          "name": "_enabled",
          "type": "bool"
        }
      ],
      "name": "setProjectTraverseEnabled",
      "outputs": [],
      "stateMutability": "nonpayable",
      "type": "function"
    },
    {
      "inputs": [
        {
          "internalType": "uint16",
          "name": "_chainId",
          "type": "uint16"
        },
        {
          "internalType": "bytes",
          "name": "_trustedRemote",
          "type": "bytes"
        }
      ],
      "name": "setTrustedRemote",
      "outputs": [],
      "stateMutability": "nonpayable",
      "type": "function"
    },
    {
      "inputs": [
        {
          "internalType": "bytes4",
          "name": "interfaceId",
          "type": "bytes4"
        }
      ],
      "name": "supportsInterface",
      "outputs": [
        {
          "internalType": "bool",
          "name": "",
          "type": "bool"
        }
      ],
      "stateMutability": "view",
      "type": "function"
    },
    {
      "inputs": [],
      "name": "symbol",
      "outputs": [
        {
          "internalType": "string",
          "name": "",
          "type": "string"
        }
      ],
      "stateMutability": "view",
      "type": "function"
    },
    {
      "inputs": [
        {
          "internalType": "uint256",
          "name": "index",
          "type": "uint256"
        }
      ],
      "name": "tokenByIndex",
      "outputs": [
        {
          "internalType": "uint256",
          "name": "",
          "type": "uint256"
        }
      ],
      "stateMutability": "view",
      "type": "function"
    },
    {
      "inputs": [
        {
          "internalType": "address",
          "name": "owner",
          "type": "address"
        },
        {
          "internalType": "uint256",
          "name": "index",
          "type": "uint256"
        }
      ],
      "name": "tokenOfOwnerByIndex",
      "outputs": [
        {
          "internalType": "uint256",
          "name": "",
          "type": "uint256"
        }
      ],
      "stateMutability": "view",
      "type": "function"
    },
    {
      "inputs": [
        {
          "internalType": "uint256",
          "name": "_tokenId",
          "type": "uint256"
        }
      ],
      "name": "tokenURI",
      "outputs": [
        {
          "internalType": "string",
          "name": "",
          "type": "string"
        }
      ],
      "stateMutability": "view",
      "type": "function"
    },
    {
      "inputs": [],
      "name": "totalSupply",
      "outputs": [
        {
          "internalType": "uint256",
          "name": "",
          "type": "uint256"
        }
      ],
      "stateMutability": "view",
      "type": "function"
    },
    {
      "inputs": [
        {
          "internalType": "address",
          "name": "from",
          "type": "address"
        },
        {
          "internalType": "address",
          "name": "to",
          "type": "address"
        },
        {
          "internalType": "uint256",
          "name": "tokenId",
          "type": "uint256"
        }
      ],
      "name": "transferFrom",
      "outputs": [],
      "stateMutability": "nonpayable",
      "type": "function"
    },
    {
      "inputs": [
        {
          "internalType": "address",
          "name": "newOwner",
          "type": "address"
        }
      ],
      "name": "transferOwnership",
      "outputs": [],
      "stateMutability": "nonpayable",
      "type": "function"
    },
    {
      "inputs": [
        {
          "internalType": "uint16",
          "name": "_dstChainId",
          "type": "uint16"
        },
        {
          "internalType": "uint256",
          "name": "_tokenId",
          "type": "uint256"
        }
      ],
      "name": "traverseChains",
      "outputs": [],
      "stateMutability": "payable",
      "type": "function"
    },
    {
      "inputs": [
        {
          "internalType": "uint16",
          "name": "",
          "type": "uint16"
        }
      ],
      "name": "trustedRemoteLookup",
      "outputs": [
        {
          "internalType": "bytes",
          "name": "",
          "type": "bytes"
        }
      ],
      "stateMutability": "view",
      "type": "function"
    },
    {
      "inputs": [
        {
          "internalType": "address",
          "name": "_owner",
          "type": "address"
        }
      ],
      "name": "walletOfOwner",
      "outputs": [
        {
          "internalType": "uint256[]",
          "name": "",
          "type": "uint256[]"
        }
      ],
      "stateMutability": "view",
      "type": "function"
    },
    {
      "inputs": [],
      "name": "withdraw",
      "outputs": [],
      "stateMutability": "payable",
      "type": "function"
    }
  ],
  "bytecode": "0x6080604052600f805460ff60a01b19169055620557306012553480156200002557600080fd5b506040516200376f3803806200376f833981016040819052620000489162000265565b81518290829062000061906000906020850190620000f2565b50805162000077906001906020840190620000f2565b505050620000946200008e6200009c60201b60201c565b620000a0565b50506200030c565b3390565b600a80546001600160a01b038381166001600160a01b0319831681179093556040519116919082907f8be0079c531659141344cd1fd0a4f28419497f9722a3daafe3b4186f6b6457e090600090a35050565b8280546200010090620002cf565b90600052602060002090601f0160209004810192826200012457600085556200016f565b82601f106200013f57805160ff19168380011785556200016f565b828001600101855582156200016f579182015b828111156200016f57825182559160200191906001019062000152565b506200017d92915062000181565b5090565b5b808211156200017d576000815560010162000182565b634e487b7160e01b600052604160045260246000fd5b600082601f830112620001c057600080fd5b81516001600160401b0380821115620001dd57620001dd62000198565b604051601f8301601f19908116603f0116810190828211818310171562000208576200020862000198565b816040528381526020925086838588010111156200022557600080fd5b600091505b838210156200024957858201830151818301840152908201906200022a565b838211156200025b5760008385830101525b9695505050505050565b600080604083850312156200027957600080fd5b82516001600160401b03808211156200029157600080fd5b6200029f86838701620001ae565b93506020850151915080821115620002b657600080fd5b50620002c585828601620001ae565b9150509250929050565b600181811c90821680620002e457607f821691505b602082108114156200030657634e487b7160e01b600052602260045260246000fd5b50919050565b613453806200031c6000396000f3fe6080604052600436106102455760003560e01c806370a0823111610139578063bf90e42b116100b6578063dd51faa21161007a578063dd51faa2146106eb578063e0513b281461070b578063e985e9c514610738578063eb8d72b714610781578063f2fde38b146107a1578063f62aaf72146107c157600080fd5b8063bf90e42b14610672578063c87b56dd14610685578063cf89fa03146106a5578063d1deba1f146106b8578063dbbb4155146106cb57600080fd5b80638ee74912116100fd5780638ee749121461059757806395d89b41146105ed57806399b56ff814610602578063a22cb46514610632578063b88d4fde1461065257600080fd5b806370a0823114610504578063715018a6146105245780637533d788146105395780637d72d4d3146105595780638da5cb5b1461057957600080fd5b806337c5073d116101c7578063438b63001161018b578063438b6300146104575780634d47fc85146104845780634f6ccce7146104a457806355f804b3146104c45780636352211e146104e457600080fd5b806337c5073d146103ba5780633ccfd60b146103da57806340a7bb10146103e257806340c10f191461041757806342842e0e1461043757600080fd5b8063095ea7b31161020e578063095ea7b31461031b57806318160ddd1461033b5780631c37a8221461035a57806323b872dd1461037a5780632f745c591461039a57600080fd5b80621d35671461024a57806301ffc9a71461026c57806306fdde03146102a1578063081812fc146102c3578063084266b0146102fb575b600080fd5b34801561025657600080fd5b5061026a61026536600461289d565b6107e1565b005b34801561027857600080fd5b5061028c610287366004612937565b6109db565b60405190151581526020015b60405180910390f35b3480156102ad57600080fd5b506102b6610a06565b60405161029891906129ac565b3480156102cf57600080fd5b506102e36102de3660046129bf565b610a98565b6040516001600160a01b039091168152602001610298565b34801561030757600080fd5b5061026a6103163660046129ed565b610b2d565b34801561032757600080fd5b5061026a610336366004612a25565b610bf8565b34801561034757600080fd5b506008545b604051908152602001610298565b34801561036657600080fd5b5061026a61037536600461289d565b610d09565b34801561038657600080fd5b5061026a610395366004612a51565b610d78565b3480156103a657600080fd5b5061034c6103b5366004612a25565b610da9565b3480156103c657600080fd5b5061026a6103d5366004612a81565b610e3f565b61026a610e80565b3480156103ee57600080fd5b506104026103fd366004612af5565b610f02565b60408051928352602083019190915201610298565b34801561042357600080fd5b5061026a610432366004612a25565b610fa2565b34801561044357600080fd5b5061026a610452366004612a51565b61100f565b34801561046357600080fd5b50610477610472366004612b9b565b61102a565b6040516102989190612bb8565b34801561049057600080fd5b50600f546102e3906001600160a01b031681565b3480156104b057600080fd5b5061034c6104bf3660046129bf565b6110cb565b3480156104d057600080fd5b5061026a6104df366004612bfc565b61115e565b3480156104f057600080fd5b506102e36104ff3660046129bf565b61119b565b34801561051057600080fd5b5061034c61051f366004612b9b565b611212565b34801561053057600080fd5b5061026a611299565b34801561054557600080fd5b506102b6610554366004612c44565b6112cf565b34801561056557600080fd5b5061026a610574366004612b9b565b611369565b34801561058557600080fd5b50600a546001600160a01b03166102e3565b3480156105a357600080fd5b506104026105b2366004612c5f565b600c60209081526000938452604080852084518086018401805192815290840195840195909520945292905282529020805460019091015482565b3480156105f957600080fd5b506102b66113b5565b34801561060e57600080fd5b5061028c61061d3660046129bf565b60106020526000908152604090205460ff1681565b34801561063e57600080fd5b5061026a61064d366004612cb5565b6113c4565b34801561065e57600080fd5b5061026a61066d366004612cea565b6113cf565b61026a610680366004612a81565b611401565b34801561069157600080fd5b506102b66106a03660046129bf565b611554565b61026a6106b3366004612a81565b611594565b61026a6106c6366004612d49565b6117b3565b3480156106d757600080fd5b5061026a6106e6366004612b9b565b611940565b3480156106f757600080fd5b5061026a6107063660046129bf565b61198c565b34801561071757600080fd5b5061034c610726366004612c44565b60116020526000908152604090205481565b34801561074457600080fd5b5061028c610753366004612dd4565b6001600160a01b03918216600090815260056020908152604080832093909416825291909152205460ff1690565b34801561078d57600080fd5b5061026a61079c366004612e0d565b6119bb565b3480156107ad57600080fd5b5061026a6107bc366004612b9b565b611a03565b3480156107cd57600080fd5b5061026a6107dc366004612e5f565b611a9b565b600b546001600160a01b031633146107f857600080fd5b61ffff84166000908152600d60205260409020805461081690612e7a565b90508351148015610855575061ffff84166000908152600d60205260409081902090516108439190612eb5565b60405180910390208380519060200120145b6108c35760405162461bcd60e51b815260206004820152603460248201527f4e6f6e626c6f636b696e6752656365697665723a20696e76616c696420736f756044820152731c98d9481cd95b991a5b99c818dbdb9d1c9858dd60621b60648201526084015b60405180910390fd5b604051630e1bd41160e11b81523090631c37a822906108ec908790879087908790600401612f27565b600060405180830381600087803b15801561090657600080fd5b505af1925050508015610917575060015b6109d5576040518060400160405280825181526020018280519060200120815250600c60008661ffff1661ffff168152602001908152602001600020846040516109619190612f70565b9081526040805191829003602090810183206001600160401b038716600090815290825291909120835181559201516001909201919091557fe6f254030bcb01ffd20558175c13fcaed6d1520be7becee4c961b65f79243b0d906109cc908690869086908690612f27565b60405180910390a15b50505050565b60006001600160e01b0319821663780e9d6360e01b1480610a005750610a0082611ae3565b92915050565b606060008054610a1590612e7a565b80601f0160208091040260200160405190810160405280929190818152602001828054610a4190612e7a565b8015610a8e5780601f10610a6357610100808354040283529160200191610a8e565b820191906000526020600020905b815481529060010190602001808311610a7157829003601f168201915b5050505050905090565b6000818152600260205260408120546001600160a01b0316610b115760405162461bcd60e51b815260206004820152602c60248201527f4552433732313a20617070726f76656420717565727920666f72206e6f6e657860448201526b34b9ba32b73a103a37b5b2b760a11b60648201526084016108ba565b506000908152600460205260409020546001600160a01b031690565b600f546001600160a01b03163314610b7f5760405162461bcd60e51b81526020600482015260156024820152742cb7ba9030b932903737ba103090313934b233b2b960591b60448201526064016108ba565b60008381526010602052604090205460ff1615610bd05760405162461bcd60e51b815260206004820152600f60248201526e105b1c9958591e481a185b991b1959608a1b60448201526064016108ba565b6000838152601060205260409020805460ff19166001179055610bf38282611b33565b505050565b6000610c038261119b565b9050806001600160a01b0316836001600160a01b03161415610c715760405162461bcd60e51b815260206004820152602160248201527f4552433732313a20617070726f76616c20746f2063757272656e74206f776e656044820152603960f91b60648201526084016108ba565b336001600160a01b0382161480610c8d5750610c8d8133610753565b610cff5760405162461bcd60e51b815260206004820152603860248201527f4552433732313a20617070726f76652063616c6c6572206973206e6f74206f7760448201527f6e6572206e6f7220617070726f76656420666f7220616c6c000000000000000060648201526084016108ba565b610bf38383611c81565b333014610d6c5760405162461bcd60e51b815260206004820152602b60248201527f4e6f6e626c6f636b696e6752656365697665723a2063616c6c6572206d75737460448201526a10313290213934b233b29760a91b60648201526084016108ba565b6109d584848484611cef565b610d823382611d69565b610d9e5760405162461bcd60e51b81526004016108ba90612f8c565b610bf3838383611e60565b6000610db483611212565b8210610e165760405162461bcd60e51b815260206004820152602b60248201527f455243373231456e756d657261626c653a206f776e657220696e646578206f7560448201526a74206f6620626f756e647360a81b60648201526084016108ba565b506001600160a01b03919091166000908152600660209081526040808320938352929052205490565b600a546001600160a01b03163314610e695760405162461bcd60e51b81526004016108ba90612fdd565b61ffff909116600090815260116020526040902055565b600a546001600160a01b03163314610eaa5760405162461bcd60e51b81526004016108ba90612fdd565b604051600090339047908381818185875af1925050503d8060008114610eec576040519150601f19603f3d011682016040523d82523d6000602084013e610ef1565b606091505b5050905080610eff57600080fd5b50565b600b5460405163040a7bb160e41b815260009182916001600160a01b03909116906340a7bb1090610f43908c908c908c908c908c908c908c9060040161303b565b604080518083038186803b158015610f5a57600080fd5b505afa158015610f6e573d6000803e3d6000fd5b505050506040513d601f19601f82011682018060405250810190610f929190613093565b9150915097509795505050505050565b600a546001600160a01b0316331480610fc55750600f546001600160a01b031633145b6110015760405162461bcd60e51b815260206004820152600d60248201526c1058d8d95cdcc819195b9a5959609a1b60448201526064016108ba565b61100b8282611b33565b5050565b610bf3838383604051806020016040528060008152506113cf565b6060600061103783611212565b90506000816001600160401b03811115611053576110536127d4565b60405190808252806020026020018201604052801561107c578160200160208202803683370190505b50905060005b828110156110c3576110948582610da9565b8282815181106110a6576110a66130b7565b6020908102919091010152806110bb816130e3565b915050611082565b509392505050565b60006110d660085490565b82106111395760405162461bcd60e51b815260206004820152602c60248201527f455243373231456e756d657261626c653a20676c6f62616c20696e646578206f60448201526b7574206f6620626f756e647360a01b60648201526084016108ba565b6008828154811061114c5761114c6130b7565b90600052602060002001549050919050565b600a546001600160a01b031633146111885760405162461bcd60e51b81526004016108ba90612fdd565b805161100b90600e9060208401906126b0565b6000818152600260205260408120546001600160a01b031680610a005760405162461bcd60e51b815260206004820152602960248201527f4552433732313a206f776e657220717565727920666f72206e6f6e657869737460448201526832b73a103a37b5b2b760b91b60648201526084016108ba565b60006001600160a01b03821661127d5760405162461bcd60e51b815260206004820152602a60248201527f4552433732313a2062616c616e636520717565727920666f7220746865207a65604482015269726f206164647265737360b01b60648201526084016108ba565b506001600160a01b031660009081526003602052604090205490565b600a546001600160a01b031633146112c35760405162461bcd60e51b81526004016108ba90612fdd565b6112cd6000612007565b565b600d60205260009081526040902080546112e890612e7a565b80601f016020809104026020016040519081016040528092919081815260200182805461131490612e7a565b80156113615780601f1061133657610100808354040283529160200191611361565b820191906000526020600020905b81548152906001019060200180831161134457829003601f168201915b505050505081565b600a546001600160a01b031633146113935760405162461bcd60e51b81526004016108ba90612fdd565b600f80546001600160a01b0319166001600160a01b0392909216919091179055565b606060018054610a1590612e7a565b61100b338383612059565b6113d93383611d69565b6113f55760405162461bcd60e51b81526004016108ba90612f8c565b6109d584848484612128565b600f54600160a01b900460ff1661145a5760405162461bcd60e51b815260206004820152601f60248201527f50726f6a65637420747261766572736520726f7574652064697361626c65640060448201526064016108ba565b6114638161119b565b6001600160a01b0316336001600160a01b0316146114af5760405162461bcd60e51b81526020600482015260096024820152682737ba1037bbb732b960b91b60448201526064016108ba565b61ffff82166000908152601160205260409020543410156115035760405162461bcd60e51b815260206004820152600e60248201526d4e6f7420656e6f7567682067617360901b60448201526064016108ba565b61150c8161215b565b6040805133815261ffff841660208201529081018290527fd6b1501a149bcef6326a1a9da07174bc1472b39fc254c02c2cbeb20103a2d3529060600160405180910390a15050565b60606000611560612202565b90508061156c84612211565b60405160200161157d9291906130fe565b604051602081830303815290604052915050919050565b61159d8161119b565b6001600160a01b0316336001600160a01b0316146115ed5760405162461bcd60e51b815260206004820152600d60248201526c2737ba103a34329037bbb732b960991b60448201526064016108ba565b6115f68161215b565b60408051336020820152808201839052815180820383018152606082018352601254600160f01b60808401526082808401919091528351808403909101815260a2830193849052600b5463040a7bb160e41b90945290926001926000916001600160a01b0316906340a7bb1090611679908990309089908790899060a60161313d565b604080518083038186803b15801561169057600080fd5b505afa1580156116a4573d6000803e3d6000fd5b505050506040513d601f19601f820116820180604052508101906116c89190613093565b5090508034101561172e5760405162461bcd60e51b815260206004820152602a60248201527f4d7573742073656e6420656e6f7567682076616c756520746f20636f766572206044820152696d65737361676546656560b01b60648201526084016108ba565b600b5461ffff87166000908152600d6020526040808220905162c5803160e81b81526001600160a01b039093169263c5803100923492611779928c928b913391908b90600401613191565b6000604051808303818588803b15801561179257600080fd5b505af11580156117a6573d6000803e3d6000fd5b5050505050505050505050565b61ffff85166000908152600c602052604080822090516117d4908790612f70565b90815260408051602092819003830190206001600160401b038716600090815292529020600181015490915061185b5760405162461bcd60e51b815260206004820152602660248201527f4e6f6e626c6f636b696e6752656365697665723a206e6f2073746f726564206d60448201526565737361676560d01b60648201526084016108ba565b80548214801561188557508060010154838360405161187b929190613271565b6040518091039020145b6118d15760405162461bcd60e51b815260206004820152601a60248201527f4c617965725a65726f3a20696e76616c6964207061796c6f616400000000000060448201526064016108ba565b60008082556001820155604051630e1bd41160e11b81523090631c37a822906119069089908990899089908990600401613281565b600060405180830381600087803b15801561192057600080fd5b505af1158015611934573d6000803e3d6000fd5b50505050505050505050565b600a546001600160a01b0316331461196a5760405162461bcd60e51b81526004016108ba90612fdd565b600b80546001600160a01b0319166001600160a01b0392909216919091179055565b600a546001600160a01b031633146119b65760405162461bcd60e51b81526004016108ba90612fdd565b601255565b600a546001600160a01b031633146119e55760405162461bcd60e51b81526004016108ba90612fdd565b61ffff83166000908152600d602052604090206109d5908383612734565b600a546001600160a01b03163314611a2d5760405162461bcd60e51b81526004016108ba90612fdd565b6001600160a01b038116611a925760405162461bcd60e51b815260206004820152602660248201527f4f776e61626c653a206e6577206f776e657220697320746865207a65726f206160448201526564647265737360d01b60648201526084016108ba565b610eff81612007565b600a546001600160a01b03163314611ac55760405162461bcd60e51b81526004016108ba90612fdd565b600f8054911515600160a01b0260ff60a01b19909216919091179055565b60006001600160e01b031982166380ac58cd60e01b1480611b1457506001600160e01b03198216635b5e139f60e01b145b80610a0057506301ffc9a760e01b6001600160e01b0319831614610a00565b6001600160a01b038216611b895760405162461bcd60e51b815260206004820181905260248201527f4552433732313a206d696e7420746f20746865207a65726f206164647265737360448201526064016108ba565b6000818152600260205260409020546001600160a01b031615611bee5760405162461bcd60e51b815260206004820152601c60248201527f4552433732313a20746f6b656e20616c7265616479206d696e7465640000000060448201526064016108ba565b611bfa6000838361230e565b6001600160a01b0382166000908152600360205260408120805460019290611c239084906132c0565b909155505060008181526002602052604080822080546001600160a01b0319166001600160a01b03861690811790915590518392907fddf252ad1be2c89b69c2b068fc378daa952ba7f163c4a11628f55a4df523b3ef908290a45050565b600081815260046020526040902080546001600160a01b0319166001600160a01b0384169081179091558190611cb68261119b565b6001600160a01b03167f8c5be1e5ebec7d5bd14f71427d1e84f3dd0314c0f7b2291e5b200ac8c7c3b92560405160405180910390a45050565b60008082806020019051810190611d0691906132d8565b91509150611d1482826123c6565b6040805161ffff881681526001600160a01b03841660208201529081018290527f1046a24c098e44fbda12f8600bd37cb06b6f2e48354350ae51621d09b3b5a9059060600160405180910390a1505050505050565b6000818152600260205260408120546001600160a01b0316611de25760405162461bcd60e51b815260206004820152602c60248201527f4552433732313a206f70657261746f7220717565727920666f72206e6f6e657860448201526b34b9ba32b73a103a37b5b2b760a11b60648201526084016108ba565b6000611ded8361119b565b9050806001600160a01b0316846001600160a01b03161480611e3457506001600160a01b0380821660009081526005602090815260408083209388168352929052205460ff165b80611e585750836001600160a01b0316611e4d84610a98565b6001600160a01b0316145b949350505050565b826001600160a01b0316611e738261119b565b6001600160a01b031614611ed75760405162461bcd60e51b815260206004820152602560248201527f4552433732313a207472616e736665722066726f6d20696e636f72726563742060448201526437bbb732b960d91b60648201526084016108ba565b6001600160a01b038216611f395760405162461bcd60e51b8152602060048201526024808201527f4552433732313a207472616e7366657220746f20746865207a65726f206164646044820152637265737360e01b60648201526084016108ba565b611f4483838361230e565b611f4f600082611c81565b6001600160a01b0383166000908152600360205260408120805460019290611f78908490613306565b90915550506001600160a01b0382166000908152600360205260408120805460019290611fa69084906132c0565b909155505060008181526002602052604080822080546001600160a01b0319166001600160a01b0386811691821790925591518493918716917fddf252ad1be2c89b69c2b068fc378daa952ba7f163c4a11628f55a4df523b3ef91a4505050565b600a80546001600160a01b038381166001600160a01b0319831681179093556040519116919082907f8be0079c531659141344cd1fd0a4f28419497f9722a3daafe3b4186f6b6457e090600090a35050565b816001600160a01b0316836001600160a01b031614156120bb5760405162461bcd60e51b815260206004820152601960248201527f4552433732313a20617070726f766520746f2063616c6c65720000000000000060448201526064016108ba565b6001600160a01b03838116600081815260056020908152604080832094871680845294825291829020805460ff191686151590811790915591519182527f17307eab39ab6107e8899845ad3d59bd9653f200f220920489ca2b5937696c31910160405180910390a3505050565b612133848484611e60565b61213f848484846123e0565b6109d55760405162461bcd60e51b81526004016108ba9061331d565b60006121668261119b565b90506121748160008461230e565b61217f600083611c81565b6001600160a01b03811660009081526003602052604081208054600192906121a8908490613306565b909155505060008281526002602052604080822080546001600160a01b0319169055518391906001600160a01b038416907fddf252ad1be2c89b69c2b068fc378daa952ba7f163c4a11628f55a4df523b3ef908390a45050565b6060600e8054610a1590612e7a565b6060816122355750506040805180820190915260018152600360fc1b602082015290565b8160005b811561225f5780612249816130e3565b91506122589050600a83613385565b9150612239565b6000816001600160401b03811115612279576122796127d4565b6040519080825280601f01601f1916602001820160405280156122a3576020820181803683370190505b5090505b8415611e58576122b8600183613306565b91506122c5600a86613399565b6122d09060306132c0565b60f81b8183815181106122e5576122e56130b7565b60200101906001600160f81b031916908160001a905350612307600a86613385565b94506122a7565b6001600160a01b0383166123695761236481600880546000838152600960205260408120829055600182018355919091527ff3f7a9fe364faab93b216da50a3214154f22a0a2b415b23a84c8169e8b636ee30155565b61238c565b816001600160a01b0316836001600160a01b03161461238c5761238c83826124ed565b6001600160a01b0382166123a357610bf38161258a565b826001600160a01b0316826001600160a01b031614610bf357610bf38282612639565b61100b82826040518060200160405280600081525061267d565b60006001600160a01b0384163b156124e257604051630a85bd0160e11b81526001600160a01b0385169063150b7a02906124249033908990889088906004016133ad565b602060405180830381600087803b15801561243e57600080fd5b505af192505050801561246e575060408051601f3d908101601f1916820190925261246b918101906133ea565b60015b6124c8573d80801561249c576040519150601f19603f3d011682016040523d82523d6000602084013e6124a1565b606091505b5080516124c05760405162461bcd60e51b81526004016108ba9061331d565b805181602001fd5b6001600160e01b031916630a85bd0160e11b149050611e58565b506001949350505050565b600060016124fa84611212565b6125049190613306565b600083815260076020526040902054909150808214612557576001600160a01b03841660009081526006602090815260408083208584528252808320548484528184208190558352600790915290208190555b5060009182526007602090815260408084208490556001600160a01b039094168352600681528383209183525290812055565b60085460009061259c90600190613306565b600083815260096020526040812054600880549394509092849081106125c4576125c46130b7565b9060005260206000200154905080600883815481106125e5576125e56130b7565b600091825260208083209091019290925582815260099091526040808220849055858252812055600880548061261d5761261d613407565b6001900381819060005260206000200160009055905550505050565b600061264483611212565b6001600160a01b039093166000908152600660209081526040808320868452825280832085905593825260079052919091209190915550565b6126878383611b33565b61269460008484846123e0565b610bf35760405162461bcd60e51b81526004016108ba9061331d565b8280546126bc90612e7a565b90600052602060002090601f0160209004810192826126de5760008555612724565b82601f106126f757805160ff1916838001178555612724565b82800160010185558215612724579182015b82811115612724578251825591602001919060010190612709565b506127309291506127a8565b5090565b82805461274090612e7a565b90600052602060002090601f0160209004810192826127625760008555612724565b82601f1061277b5782800160ff19823516178555612724565b82800160010185558215612724579182015b8281111561272457823582559160200191906001019061278d565b5b8082111561273057600081556001016127a9565b803561ffff811681146127cf57600080fd5b919050565b634e487b7160e01b600052604160045260246000fd5b60006001600160401b0380841115612804576128046127d4565b604051601f8501601f19908116603f0116810190828211818310171561282c5761282c6127d4565b8160405280935085815286868601111561284557600080fd5b858560208301376000602087830101525050509392505050565b600082601f83011261287057600080fd5b61287f838335602085016127ea565b9392505050565b80356001600160401b03811681146127cf57600080fd5b600080600080608085870312156128b357600080fd5b6128bc856127bd565b935060208501356001600160401b03808211156128d857600080fd5b6128e48883890161285f565b94506128f260408801612886565b9350606087013591508082111561290857600080fd5b506129158782880161285f565b91505092959194509250565b6001600160e01b031981168114610eff57600080fd5b60006020828403121561294957600080fd5b813561287f81612921565b60005b8381101561296f578181015183820152602001612957565b838111156109d55750506000910152565b60008151808452612998816020860160208601612954565b601f01601f19169290920160200192915050565b60208152600061287f6020830184612980565b6000602082840312156129d157600080fd5b5035919050565b6001600160a01b0381168114610eff57600080fd5b600080600060608486031215612a0257600080fd5b833592506020840135612a14816129d8565b929592945050506040919091013590565b60008060408385031215612a3857600080fd5b8235612a43816129d8565b946020939093013593505050565b600080600060608486031215612a6657600080fd5b8335612a71816129d8565b92506020840135612a14816129d8565b60008060408385031215612a9457600080fd5b612a43836127bd565b60008083601f840112612aaf57600080fd5b5081356001600160401b03811115612ac657600080fd5b602083019150836020828501011115612ade57600080fd5b9250929050565b803580151581146127cf57600080fd5b600080600080600080600060a0888a031215612b1057600080fd5b612b19886127bd565b96506020880135612b29816129d8565b955060408801356001600160401b0380821115612b4557600080fd5b612b518b838c01612a9d565b9097509550859150612b6560608b01612ae5565b945060808a0135915080821115612b7b57600080fd5b50612b888a828b01612a9d565b989b979a50959850939692959293505050565b600060208284031215612bad57600080fd5b813561287f816129d8565b6020808252825182820181905260009190848201906040850190845b81811015612bf057835183529284019291840191600101612bd4565b50909695505050505050565b600060208284031215612c0e57600080fd5b81356001600160401b03811115612c2457600080fd5b8201601f81018413612c3557600080fd5b611e58848235602084016127ea565b600060208284031215612c5657600080fd5b61287f826127bd565b600080600060608486031215612c7457600080fd5b612c7d846127bd565b925060208401356001600160401b03811115612c9857600080fd5b612ca48682870161285f565b925050604084013590509250925092565b60008060408385031215612cc857600080fd5b8235612cd3816129d8565b9150612ce160208401612ae5565b90509250929050565b60008060008060808587031215612d0057600080fd5b8435612d0b816129d8565b93506020850135612d1b816129d8565b92506040850135915060608501356001600160401b03811115612d3d57600080fd5b6129158782880161285f565b600080600080600060808688031215612d6157600080fd5b612d6a866127bd565b945060208601356001600160401b0380821115612d8657600080fd5b612d9289838a0161285f565b9550612da060408901612886565b94506060880135915080821115612db657600080fd5b50612dc388828901612a9d565b969995985093965092949392505050565b60008060408385031215612de757600080fd5b8235612df2816129d8565b91506020830135612e02816129d8565b809150509250929050565b600080600060408486031215612e2257600080fd5b612e2b846127bd565b925060208401356001600160401b03811115612e4657600080fd5b612e5286828701612a9d565b9497909650939450505050565b600060208284031215612e7157600080fd5b61287f82612ae5565b600181811c90821680612e8e57607f821691505b60208210811415612eaf57634e487b7160e01b600052602260045260246000fd5b50919050565b6000808354612ec381612e7a565b60018281168015612edb5760018114612eec57612f1b565b60ff19841687528287019450612f1b565b8760005260208060002060005b85811015612f125781548a820152908401908201612ef9565b50505082870194505b50929695505050505050565b61ffff85168152608060208201526000612f446080830186612980565b6001600160401b03851660408401528281036060840152612f658185612980565b979650505050505050565b60008251612f82818460208701612954565b9190910192915050565b60208082526031908201527f4552433732313a207472616e736665722063616c6c6572206973206e6f74206f6040820152701ddb995c881b9bdc88185c1c1c9bdd9959607a1b606082015260800190565b6020808252818101527f4f776e61626c653a2063616c6c6572206973206e6f7420746865206f776e6572604082015260600190565b81835281816020850137506000828201602090810191909152601f909101601f19169091010190565b61ffff881681526001600160a01b038716602082015260a06040820181905260009061306a9083018789613012565b85151560608401528281036080840152613085818587613012565b9a9950505050505050505050565b600080604083850312156130a657600080fd5b505080516020909101519092909150565b634e487b7160e01b600052603260045260246000fd5b634e487b7160e01b600052601160045260246000fd5b60006000198214156130f7576130f76130cd565b5060010190565b60008351613110818460208801612954565b835190830190613124818360208801612954565b64173539b7b760d91b9101908152600501949350505050565b61ffff861681526001600160a01b038516602082015260a06040820181905260009061316b90830186612980565b841515606084015282810360808401526131858185612980565b98975050505050505050565b61ffff871681526000602060c081840152600088546131af81612e7a565b8060c087015260e06001808416600081146131d157600181146131e657613214565b60ff1985168984015261010089019550613214565b8d6000528660002060005b8581101561320c5781548b82018601529083019088016131f1565b8a0184019650505b5050505050838103604085015261322b8189612980565b91505061324360608401876001600160a01b03169052565b6001600160a01b038516608084015282810360a08401526132648185612980565b9998505050505050505050565b8183823760009101908152919050565b61ffff8616815260806020820152600061329e6080830187612980565b6001600160401b03861660408401528281036060840152613185818587613012565b600082198211156132d3576132d36130cd565b500190565b600080604083850312156132eb57600080fd5b82516132f6816129d8565b6020939093015192949293505050565b600082821015613318576133186130cd565b500390565b60208082526032908201527f4552433732313a207472616e7366657220746f206e6f6e20455243373231526560408201527131b2b4bb32b91034b6b83632b6b2b73a32b960711b606082015260800190565b634e487b7160e01b600052601260045260246000fd5b6000826133945761339461336f565b500490565b6000826133a8576133a861336f565b500690565b6001600160a01b03858116825284166020820152604081018390526080606082018190526000906133e090830184612980565b9695505050505050565b6000602082840312156133fc57600080fd5b815161287f81612921565b634e487b7160e01b600052603160045260246000fdfea26469706673582212201dedae31fadc04908c05f680930ddc36793dd40fd1ae374a6f5c6d6acc9eb8de64736f6c63430008090033",
  "linkReferences": {},
  "deployedLinkReferences": {}
}