{
  "_format": "hh-sol-artifact-1",
  "contractName": "MultichainNFT",
  "sourceName": "contracts/MultichainNFT.sol",
  "abi": [
    {
      "inputs": [
        {
          "internalType": "string",
          "name": "_name",
          "type": "string"
        },
        {
          "internalType": "string",
          "name": "_symbol",
          "type": "string"
        }
      ],
      "stateMutability": "nonpayable",
      "type": "constructor"
    },
    {
      "anonymous": false,
      "inputs": [
        {
          "indexed": true,
          "internalType": "address",
          "name": "owner",
          "type": "address"
        },
        {
          "indexed": true,
          "internalType": "address",
          "name": "approved",
          "type": "address"
        },
        {
          "indexed": true,
          "internalType": "uint256",
          "name": "tokenId",
          "type": "uint256"
        }
      ],
      "name": "Approval",
      "type": "event"
    },
    {
      "anonymous": false,
      "inputs": [
        {
          "indexed": true,
          "internalType": "address",
          "name": "owner",
          "type": "address"
        },
        {
          "indexed": true,
          "internalType": "address",
          "name": "operator",
          "type": "address"
        },
        {
          "indexed": false,
          "internalType": "bool",
          "name": "approved",
          "type": "bool"
        }
      ],
      "name": "ApprovalForAll",
      "type": "event"
    },
    {
      "anonymous": false,
      "inputs": [
        {
          "indexed": false,
          "internalType": "address",
          "name": "receiver",
          "type": "address"
        },
        {
          "indexed": false,
          "internalType": "uint16",
          "name": "target",
          "type": "uint16"
        },
        {
          "indexed": false,
          "internalType": "uint256",
          "name": "tokenId",
          "type": "uint256"
        }
      ],
      "name": "BridgeRequest",
      "type": "event"
    },
    {
      "anonymous": false,
      "inputs": [
        {
          "indexed": false,
          "internalType": "uint16",
          "name": "_srcChainId",
          "type": "uint16"
        },
        {
          "indexed": false,
          "internalType": "bytes",
          "name": "_srcAddress",
          "type": "bytes"
        },
        {
          "indexed": false,
          "internalType": "uint64",
          "name": "_nonce",
          "type": "uint64"
        },
        {
          "indexed": false,
          "internalType": "bytes",
          "name": "_payload",
          "type": "bytes"
        }
      ],
      "name": "MessageFailed",
      "type": "event"
    },
    {
      "anonymous": false,
      "inputs": [
        {
          "indexed": true,
          "internalType": "address",
          "name": "previousOwner",
          "type": "address"
        },
        {
          "indexed": true,
          "internalType": "address",
          "name": "newOwner",
          "type": "address"
        }
      ],
      "name": "OwnershipTransferred",
      "type": "event"
    },
    {
      "anonymous": false,
      "inputs": [
        {
          "indexed": false,
          "internalType": "uint16",
          "name": "_srcChainId",
          "type": "uint16"
        },
        {
          "indexed": false,
          "internalType": "address",
          "name": "_from",
          "type": "address"
        },
        {
          "indexed": false,
          "internalType": "uint256",
          "name": "_tokenId",
          "type": "uint256"
        }
      ],
      "name": "ReceiveNFT",
      "type": "event"
    },
    {
      "anonymous": false,
      "inputs": [
        {
          "indexed": true,
          "internalType": "address",
          "name": "from",
          "type": "address"
        },
        {
          "indexed": true,
          "internalType": "address",
          "name": "to",
          "type": "address"
        },
        {
          "indexed": true,
          "internalType": "uint256",
          "name": "tokenId",
          "type": "uint256"
        }
      ],
      "name": "Transfer",
      "type": "event"
    },
    {
      "inputs": [
        {
          "internalType": "address",
          "name": "to",
          "type": "address"
        },
        {
          "internalType": "uint256",
          "name": "tokenId",
          "type": "uint256"
        }
      ],
      "name": "approve",
      "outputs": [],
      "stateMutability": "nonpayable",
      "type": "function"
    },
    {
      "inputs": [
        {
          "internalType": "address",
          "name": "owner",
          "type": "address"
        }
      ],
      "name": "balanceOf",
      "outputs": [
        {
          "internalType": "uint256",
          "name": "",
          "type": "uint256"
        }
      ],
      "stateMutability": "view",
      "type": "function"
    },
    {
      "inputs": [],
      "name": "bridger",
      "outputs": [
        {
          "internalType": "address",
          "name": "",
          "type": "address"
        }
      ],
      "stateMutability": "view",
      "type": "function"
    },
    {
      "inputs": [
        {
          "internalType": "address",
          "name": "_bridger",
          "type": "address"
        }
      ],
      "name": "bridgerAddress",
      "outputs": [],
      "stateMutability": "nonpayable",
      "type": "function"
    },
    {
      "inputs": [
        {
          "internalType": "uint16",
          "name": "_dstChainId",
          "type": "uint16"
        },
        {
          "internalType": "address",
          "name": "_userApplication",
          "type": "address"
        },
        {
          "internalType": "bytes",
          "name": "_payload",
          "type": "bytes"
        },
        {
          "internalType": "bool",
          "name": "_payInZRO",
          "type": "bool"
        },
        {
          "internalType": "bytes",
          "name": "_adapterParams",
          "type": "bytes"
        }
      ],
      "name": "estimateFees",
      "outputs": [
        {
          "internalType": "uint256",
          "name": "nativeFee",
          "type": "uint256"
        },
        {
          "internalType": "uint256",
          "name": "zroFee",
          "type": "uint256"
        }
      ],
      "stateMutability": "view",
      "type": "function"
    },
    {
      "inputs": [
        {
          "internalType": "uint16",
          "name": "",
          "type": "uint16"
        },
        {
          "internalType": "bytes",
          "name": "",
          "type": "bytes"
        },
        {
          "internalType": "uint256",
          "name": "",
          "type": "uint256"
        }
      ],
      "name": "failedMessages",
      "outputs": [
        {
          "internalType": "uint256",
          "name": "payloadLength",
          "type": "uint256"
        },
        {
          "internalType": "bytes32",
          "name": "payloadHash",
          "type": "bytes32"
        }
      ],
      "stateMutability": "view",
      "type": "function"
    },
    {
      "inputs": [
        {
          "internalType": "uint16",
          "name": "",
          "type": "uint16"
        }
      ],
      "name": "gasCosts",
      "outputs": [
        {
          "internalType": "uint256",
          "name": "",
          "type": "uint256"
        }
      ],
      "stateMutability": "view",
      "type": "function"
    },
    {
      "inputs": [
        {
          "internalType": "uint256",
          "name": "tokenId",
          "type": "uint256"
        }
      ],
      "name": "getApproved",
      "outputs": [
        {
          "internalType": "address",
          "name": "",
          "type": "address"
        }
      ],
      "stateMutability": "view",
      "type": "function"
    },
    {
      "inputs": [
        {
          "internalType": "bytes32",
          "name": "",
          "type": "bytes32"
        }
      ],
      "name": "handledMessages",
      "outputs": [
        {
          "internalType": "bool",
          "name": "",
          "type": "bool"
        }
      ],
      "stateMutability": "view",
      "type": "function"
    },
    {
      "inputs": [
        {
          "internalType": "address",
          "name": "owner",
          "type": "address"
        },
        {
          "internalType": "address",
          "name": "operator",
          "type": "address"
        }
      ],
      "name": "isApprovedForAll",
      "outputs": [
        {
          "internalType": "bool",
          "name": "",
          "type": "bool"
        }
      ],
      "stateMutability": "view",
      "type": "function"
    },
    {
      "inputs": [
        {
          "internalType": "uint16",
          "name": "_srcChainId",
          "type": "uint16"
        },
        {
          "internalType": "bytes",
          "name": "_srcAddress",
          "type": "bytes"
        },
        {
          "internalType": "uint64",
          "name": "_nonce",
          "type": "uint64"
        },
        {
          "internalType": "bytes",
          "name": "_payload",
          "type": "bytes"
        }
      ],
      "name": "lzReceive",
      "outputs": [],
      "stateMutability": "nonpayable",
      "type": "function"
    },
    {
      "inputs": [
        {
          "internalType": "address",
          "name": "receiver",
          "type": "address"
        },
        {
          "internalType": "uint256",
          "name": "_tokenId",
          "type": "uint256"
        }
      ],
      "name": "mint",
      "outputs": [],
      "stateMutability": "nonpayable",
      "type": "function"
    },
    {
      "inputs": [],
      "name": "name",
      "outputs": [
        {
          "internalType": "string",
          "name": "",
          "type": "string"
        }
      ],
      "stateMutability": "view",
      "type": "function"
    },
    {
      "inputs": [
        {
          "internalType": "uint16",
          "name": "_srcChainId",
          "type": "uint16"
        },
        {
          "internalType": "bytes",
          "name": "_srcAddress",
          "type": "bytes"
        },
        {
          "internalType": "uint64",
          "name": "_nonce",
          "type": "uint64"
        },
        {
          "internalType": "bytes",
          "name": "_payload",
          "type": "bytes"
        }
      ],
      "name": "onLzReceive",
      "outputs": [],
      "stateMutability": "nonpayable",
      "type": "function"
    },
    {
      "inputs": [],
      "name": "owner",
      "outputs": [
        {
          "internalType": "address",
          "name": "",
          "type": "address"
        }
      ],
      "stateMutability": "view",
      "type": "function"
    },
    {
      "inputs": [
        {
          "internalType": "uint256",
          "name": "tokenId",
          "type": "uint256"
        }
      ],
      "name": "ownerOf",
      "outputs": [
        {
          "internalType": "address",
          "name": "",
          "type": "address"
        }
      ],
      "stateMutability": "view",
      "type": "function"
    },
    {
      "inputs": [
        {
          "internalType": "bytes32",
          "name": "_msgId",
          "type": "bytes32"
        },
        {
          "internalType": "address",
          "name": "_receiver",
          "type": "address"
        },
        {
          "internalType": "uint256",
          "name": "_tokenId",
          "type": "uint256"
        }
      ],
      "name": "projectReceive",
      "outputs": [],
      "stateMutability": "nonpayable",
      "type": "function"
    },
    {
      "inputs": [
        {
          "internalType": "uint16",
          "name": "_target",
          "type": "uint16"
        },
        {
          "internalType": "uint256",
          "name": "_tokenId",
          "type": "uint256"
        }
      ],
      "name": "projectTraverseChains",
      "outputs": [],
      "stateMutability": "payable",
      "type": "function"
    },
    {
      "inputs": [],
      "name": "renounceOwnership",
      "outputs": [],
      "stateMutability": "nonpayable",
      "type": "function"
    },
    {
      "inputs": [
        {
          "internalType": "uint16",
          "name": "_srcChainId",
          "type": "uint16"
        },
        {
          "internalType": "bytes",
          "name": "_srcAddress",
          "type": "bytes"
        },
        {
          "internalType": "uint64",
          "name": "_nonce",
          "type": "uint64"
        },
        {
          "internalType": "bytes",
          "name": "_payload",
          "type": "bytes"
        }
      ],
      "name": "retryMessage",
      "outputs": [],
      "stateMutability": "payable",
      "type": "function"
    },
    {
      "inputs": [
        {
          "internalType": "address",
          "name": "from",
          "type": "address"
        },
        {
          "internalType": "address",
          "name": "to",
          "type": "address"
        },
        {
          "internalType": "uint256",
          "name": "tokenId",
          "type": "uint256"
        }
      ],
      "name": "safeTransferFrom",
      "outputs": [],
      "stateMutability": "nonpayable",
      "type": "function"
    },
    {
      "inputs": [
        {
          "internalType": "address",
          "name": "from",
          "type": "address"
        },
        {
          "internalType": "address",
          "name": "to",
          "type": "address"
        },
        {
          "internalType": "uint256",
          "name": "tokenId",
          "type": "uint256"
        },
        {
          "internalType": "bytes",
          "name": "_data",
          "type": "bytes"
        }
      ],
      "name": "safeTransferFrom",
      "outputs": [],
      "stateMutability": "nonpayable",
      "type": "function"
    },
    {
      "inputs": [
        {
          "internalType": "address",
          "name": "operator",
          "type": "address"
        },
        {
          "internalType": "bool",
          "name": "approved",
          "type": "bool"
        }
      ],
      "name": "setApprovalForAll",
      "outputs": [],
      "stateMutability": "nonpayable",
      "type": "function"
    },
    {
      "inputs": [
        {
          "internalType": "string",
          "name": "_base",
          "type": "string"
        }
      ],
      "name": "setBaseURI",
      "outputs": [],
      "stateMutability": "nonpayable",
      "type": "function"
    },
    {
      "inputs": [
        {
          "internalType": "address",
          "name": "_endpoint",
          "type": "address"
        }
      ],
      "name": "setEndpoint",
      "outputs": [],
      "stateMutability": "nonpayable",
      "type": "function"
    },
    {
      "inputs": [
        {
          "internalType": "string",
          "name": "ext",
          "type": "string"
        }
      ],
      "name": "setExtension",
      "outputs": [],
      "stateMutability": "nonpayable",
      "type": "function"
    },
    {
      "inputs": [
        {
          "internalType": "uint256",
          "name": "_gas",
          "type": "uint256"
        }
      ],
      "name": "setGas",
      "outputs": [],
      "stateMutability": "nonpayable",
      "type": "function"
    },
    {
      "inputs": [
        {
          "internalType": "uint16",
          "name": "_target",
          "type": "uint16"
        },
        {
          "internalType": "uint256",
          "name": "_gas",
          "type": "uint256"
        }
      ],
      "name": "setGasCosts",
      "outputs": [],
      "stateMutability": "nonpayable",
      "type": "function"
    },
    {
      "inputs": [
        {
          "internalType": "bool",
          "name": "_enabled",
          "type": "bool"
        }
      ],
      "name": "setProjectTraverseEnabled",
      "outputs": [],
      "stateMutability": "nonpayable",
      "type": "function"
    },
    {
      "inputs": [
        {
          "internalType": "uint16",
          "name": "_chainId",
          "type": "uint16"
        },
        {
          "internalType": "bytes",
          "name": "_trustedRemote",
          "type": "bytes"
        }
      ],
      "name": "setTrustedRemote",
      "outputs": [],
      "stateMutability": "nonpayable",
      "type": "function"
    },
    {
      "inputs": [
        {
          "internalType": "bytes4",
          "name": "interfaceId",
          "type": "bytes4"
        }
      ],
      "name": "supportsInterface",
      "outputs": [
        {
          "internalType": "bool",
          "name": "",
          "type": "bool"
        }
      ],
      "stateMutability": "view",
      "type": "function"
    },
    {
      "inputs": [],
      "name": "symbol",
      "outputs": [
        {
          "internalType": "string",
          "name": "",
          "type": "string"
        }
      ],
      "stateMutability": "view",
      "type": "function"
    },
    {
      "inputs": [
        {
          "internalType": "uint256",
          "name": "index",
          "type": "uint256"
        }
      ],
      "name": "tokenByIndex",
      "outputs": [
        {
          "internalType": "uint256",
          "name": "",
          "type": "uint256"
        }
      ],
      "stateMutability": "view",
      "type": "function"
    },
    {
      "inputs": [
        {
          "internalType": "address",
          "name": "owner",
          "type": "address"
        },
        {
          "internalType": "uint256",
          "name": "index",
          "type": "uint256"
        }
      ],
      "name": "tokenOfOwnerByIndex",
      "outputs": [
        {
          "internalType": "uint256",
          "name": "",
          "type": "uint256"
        }
      ],
      "stateMutability": "view",
      "type": "function"
    },
    {
      "inputs": [
        {
          "internalType": "uint256",
          "name": "_tokenId",
          "type": "uint256"
        }
      ],
      "name": "tokenURI",
      "outputs": [
        {
          "internalType": "string",
          "name": "",
          "type": "string"
        }
      ],
      "stateMutability": "view",
      "type": "function"
    },
    {
      "inputs": [],
      "name": "totalSupply",
      "outputs": [
        {
          "internalType": "uint256",
          "name": "",
          "type": "uint256"
        }
      ],
      "stateMutability": "view",
      "type": "function"
    },
    {
      "inputs": [
        {
          "internalType": "address",
          "name": "from",
          "type": "address"
        },
        {
          "internalType": "address",
          "name": "to",
          "type": "address"
        },
        {
          "internalType": "uint256",
          "name": "tokenId",
          "type": "uint256"
        }
      ],
      "name": "transferFrom",
      "outputs": [],
      "stateMutability": "nonpayable",
      "type": "function"
    },
    {
      "inputs": [
        {
          "internalType": "address",
          "name": "newOwner",
          "type": "address"
        }
      ],
      "name": "transferOwnership",
      "outputs": [],
      "stateMutability": "nonpayable",
      "type": "function"
    },
    {
      "inputs": [
        {
          "internalType": "uint16",
          "name": "_dstChainId",
          "type": "uint16"
        },
        {
          "internalType": "uint256",
          "name": "_tokenId",
          "type": "uint256"
        }
      ],
      "name": "traverseChains",
      "outputs": [],
      "stateMutability": "payable",
      "type": "function"
    },
    {
      "inputs": [
        {
          "internalType": "uint16",
          "name": "",
          "type": "uint16"
        }
      ],
      "name": "trustedRemoteLookup",
      "outputs": [
        {
          "internalType": "bytes",
          "name": "",
          "type": "bytes"
        }
      ],
      "stateMutability": "view",
      "type": "function"
    },
    {
      "inputs": [
        {
          "internalType": "address",
          "name": "_owner",
          "type": "address"
        }
      ],
      "name": "walletOfOwner",
      "outputs": [
        {
          "internalType": "uint256[]",
          "name": "",
          "type": "uint256[]"
        }
      ],
      "stateMutability": "view",
      "type": "function"
    },
    {
      "inputs": [],
      "name": "withdraw",
      "outputs": [],
      "stateMutability": "payable",
      "type": "function"
    }
  ],
  "bytecode": "0x60806040526010805460ff60a01b19169055620557306013553480156200002557600080fd5b50604051620037d6380380620037d6833981016040819052620000489162000265565b81518290829062000061906000906020850190620000f2565b50805162000077906001906020840190620000f2565b505050620000946200008e6200009c60201b60201c565b620000a0565b50506200030c565b3390565b600a80546001600160a01b038381166001600160a01b0319831681179093556040519116919082907f8be0079c531659141344cd1fd0a4f28419497f9722a3daafe3b4186f6b6457e090600090a35050565b8280546200010090620002cf565b90600052602060002090601f0160209004810192826200012457600085556200016f565b82601f106200013f57805160ff19168380011785556200016f565b828001600101855582156200016f579182015b828111156200016f57825182559160200191906001019062000152565b506200017d92915062000181565b5090565b5b808211156200017d576000815560010162000182565b634e487b7160e01b600052604160045260246000fd5b600082601f830112620001c057600080fd5b81516001600160401b0380821115620001dd57620001dd62000198565b604051601f8301601f19908116603f0116810190828211818310171562000208576200020862000198565b816040528381526020925086838588010111156200022557600080fd5b600091505b838210156200024957858201830151818301840152908201906200022a565b838211156200025b5760008385830101525b9695505050505050565b600080604083850312156200027957600080fd5b82516001600160401b03808211156200029157600080fd5b6200029f86838701620001ae565b93506020850151915080821115620002b657600080fd5b50620002c585828601620001ae565b9150509250929050565b600181811c90821680620002e457607f821691505b602082108114156200030657634e487b7160e01b600052602260045260246000fd5b50919050565b6134ba806200031c6000396000f3fe6080604052600436106102505760003560e01c8063715018a611610139578063bf90e42b116100b6578063dd51faa21161007a578063dd51faa214610716578063e0513b2814610736578063e985e9c514610763578063eb8d72b7146107ac578063f2fde38b146107cc578063f62aaf72146107ec57600080fd5b8063bf90e42b1461069d578063c87b56dd146106b0578063cf89fa03146106d0578063d1deba1f146106e3578063dbbb4155146106f657600080fd5b80638ee74912116100fd5780638ee74912146105c257806395d89b411461061857806399b56ff81461062d578063a22cb4651461065d578063b88d4fde1461067d57600080fd5b8063715018a61461052f5780637533d788146105445780637d72d4d3146105645780637e2285aa146105845780638da5cb5b146105a457600080fd5b806337c5073d116101d2578063438b630011610196578063438b6300146104625780634d47fc851461048f5780634f6ccce7146104af57806355f804b3146104cf5780636352211e146104ef57806370a082311461050f57600080fd5b806337c5073d146103c55780633ccfd60b146103e557806340a7bb10146103ed57806340c10f191461042257806342842e0e1461044257600080fd5b8063095ea7b311610219578063095ea7b31461032657806318160ddd146103465780631c37a8221461036557806323b872dd146103855780632f745c59146103a557600080fd5b80621d35671461025557806301ffc9a71461027757806306fdde03146102ac578063081812fc146102ce578063084266b014610306575b600080fd5b34801561026157600080fd5b50610275610270366004612908565b61080c565b005b34801561028357600080fd5b506102976102923660046129a2565b610a06565b60405190151581526020015b60405180910390f35b3480156102b857600080fd5b506102c1610a31565b6040516102a39190612a17565b3480156102da57600080fd5b506102ee6102e9366004612a2a565b610ac3565b6040516001600160a01b0390911681526020016102a3565b34801561031257600080fd5b50610275610321366004612a58565b610b58565b34801561033257600080fd5b50610275610341366004612a90565b610c23565b34801561035257600080fd5b506008545b6040519081526020016102a3565b34801561037157600080fd5b50610275610380366004612908565b610d34565b34801561039157600080fd5b506102756103a0366004612abc565b610da3565b3480156103b157600080fd5b506103576103c0366004612a90565b610dd4565b3480156103d157600080fd5b506102756103e0366004612aec565b610e6a565b610275610eab565b3480156103f957600080fd5b5061040d610408366004612b60565b610f2d565b604080519283526020830191909152016102a3565b34801561042e57600080fd5b5061027561043d366004612a90565b610fcd565b34801561044e57600080fd5b5061027561045d366004612abc565b61103a565b34801561046e57600080fd5b5061048261047d366004612c06565b611055565b6040516102a39190612c23565b34801561049b57600080fd5b506010546102ee906001600160a01b031681565b3480156104bb57600080fd5b506103576104ca366004612a2a565b6110f6565b3480156104db57600080fd5b506102756104ea366004612c67565b611189565b3480156104fb57600080fd5b506102ee61050a366004612a2a565b6111c6565b34801561051b57600080fd5b5061035761052a366004612c06565b61123d565b34801561053b57600080fd5b506102756112c4565b34801561055057600080fd5b506102c161055f366004612caf565b6112fa565b34801561057057600080fd5b5061027561057f366004612c06565b611394565b34801561059057600080fd5b5061027561059f366004612c67565b6113e0565b3480156105b057600080fd5b50600a546001600160a01b03166102ee565b3480156105ce57600080fd5b5061040d6105dd366004612cca565b600c60209081526000938452604080852084518086018401805192815290840195840195909520945292905282529020805460019091015482565b34801561062457600080fd5b506102c161141d565b34801561063957600080fd5b50610297610648366004612a2a565b60116020526000908152604090205460ff1681565b34801561066957600080fd5b50610275610678366004612d20565b61142c565b34801561068957600080fd5b50610275610698366004612d55565b611437565b6102756106ab366004612aec565b611469565b3480156106bc57600080fd5b506102c16106cb366004612a2a565b6115bc565b6102756106de366004612aec565b6115ff565b6102756106f1366004612db4565b61181e565b34801561070257600080fd5b50610275610711366004612c06565b6119ab565b34801561072257600080fd5b50610275610731366004612a2a565b6119f7565b34801561074257600080fd5b50610357610751366004612caf565b60126020526000908152604090205481565b34801561076f57600080fd5b5061029761077e366004612e3f565b6001600160a01b03918216600090815260056020908152604080832093909416825291909152205460ff1690565b3480156107b857600080fd5b506102756107c7366004612e78565b611a26565b3480156107d857600080fd5b506102756107e7366004612c06565b611a6e565b3480156107f857600080fd5b50610275610807366004612eca565b611b06565b600b546001600160a01b0316331461082357600080fd5b61ffff84166000908152600d60205260409020805461084190612ee5565b90508351148015610880575061ffff84166000908152600d602052604090819020905161086e9190612f8f565b60405180910390208380519060200120145b6108ee5760405162461bcd60e51b815260206004820152603460248201527f4e6f6e626c6f636b696e6752656365697665723a20696e76616c696420736f756044820152731c98d9481cd95b991a5b99c818dbdb9d1c9858dd60621b60648201526084015b60405180910390fd5b604051630e1bd41160e11b81523090631c37a82290610917908790879087908790600401612f9b565b600060405180830381600087803b15801561093157600080fd5b505af1925050508015610942575060015b610a00576040518060400160405280825181526020018280519060200120815250600c60008661ffff1661ffff1681526020019081526020016000208460405161098c9190612fe4565b9081526040805191829003602090810183206001600160401b038716600090815290825291909120835181559201516001909201919091557fe6f254030bcb01ffd20558175c13fcaed6d1520be7becee4c961b65f79243b0d906109f7908690869086908690612f9b565b60405180910390a15b50505050565b60006001600160e01b0319821663780e9d6360e01b1480610a2b5750610a2b82611b4e565b92915050565b606060008054610a4090612ee5565b80601f0160208091040260200160405190810160405280929190818152602001828054610a6c90612ee5565b8015610ab95780601f10610a8e57610100808354040283529160200191610ab9565b820191906000526020600020905b815481529060010190602001808311610a9c57829003601f168201915b5050505050905090565b6000818152600260205260408120546001600160a01b0316610b3c5760405162461bcd60e51b815260206004820152602c60248201527f4552433732313a20617070726f76656420717565727920666f72206e6f6e657860448201526b34b9ba32b73a103a37b5b2b760a11b60648201526084016108e5565b506000908152600460205260409020546001600160a01b031690565b6010546001600160a01b03163314610baa5760405162461bcd60e51b81526020600482015260156024820152742cb7ba9030b932903737ba103090313934b233b2b960591b60448201526064016108e5565b60008381526011602052604090205460ff1615610bfb5760405162461bcd60e51b815260206004820152600f60248201526e105b1c9958591e481a185b991b1959608a1b60448201526064016108e5565b6000838152601160205260409020805460ff19166001179055610c1e8282611b9e565b505050565b6000610c2e826111c6565b9050806001600160a01b0316836001600160a01b03161415610c9c5760405162461bcd60e51b815260206004820152602160248201527f4552433732313a20617070726f76616c20746f2063757272656e74206f776e656044820152603960f91b60648201526084016108e5565b336001600160a01b0382161480610cb85750610cb8813361077e565b610d2a5760405162461bcd60e51b815260206004820152603860248201527f4552433732313a20617070726f76652063616c6c6572206973206e6f74206f7760448201527f6e6572206e6f7220617070726f76656420666f7220616c6c000000000000000060648201526084016108e5565b610c1e8383611cec565b333014610d975760405162461bcd60e51b815260206004820152602b60248201527f4e6f6e626c6f636b696e6752656365697665723a2063616c6c6572206d75737460448201526a10313290213934b233b29760a91b60648201526084016108e5565b610a0084848484611d5a565b610dad3382611dd4565b610dc95760405162461bcd60e51b81526004016108e590613000565b610c1e838383611ecb565b6000610ddf8361123d565b8210610e415760405162461bcd60e51b815260206004820152602b60248201527f455243373231456e756d657261626c653a206f776e657220696e646578206f7560448201526a74206f6620626f756e647360a81b60648201526084016108e5565b506001600160a01b03919091166000908152600660209081526040808320938352929052205490565b600a546001600160a01b03163314610e945760405162461bcd60e51b81526004016108e590613051565b61ffff909116600090815260126020526040902055565b600a546001600160a01b03163314610ed55760405162461bcd60e51b81526004016108e590613051565b604051600090339047908381818185875af1925050503d8060008114610f17576040519150601f19603f3d011682016040523d82523d6000602084013e610f1c565b606091505b5050905080610f2a57600080fd5b50565b600b5460405163040a7bb160e41b815260009182916001600160a01b03909116906340a7bb1090610f6e908c908c908c908c908c908c908c906004016130af565b604080518083038186803b158015610f8557600080fd5b505afa158015610f99573d6000803e3d6000fd5b505050506040513d601f19601f82011682018060405250810190610fbd9190613107565b9150915097509795505050505050565b600a546001600160a01b0316331480610ff057506010546001600160a01b031633145b61102c5760405162461bcd60e51b815260206004820152600d60248201526c1058d8d95cdcc819195b9a5959609a1b60448201526064016108e5565b6110368282611b9e565b5050565b610c1e83838360405180602001604052806000815250611437565b606060006110628361123d565b90506000816001600160401b0381111561107e5761107e61283f565b6040519080825280602002602001820160405280156110a7578160200160208202803683370190505b50905060005b828110156110ee576110bf8582610dd4565b8282815181106110d1576110d161312b565b6020908102919091010152806110e681613157565b9150506110ad565b509392505050565b600061110160085490565b82106111645760405162461bcd60e51b815260206004820152602c60248201527f455243373231456e756d657261626c653a20676c6f62616c20696e646578206f60448201526b7574206f6620626f756e647360a01b60648201526084016108e5565b600882815481106111775761117761312b565b90600052602060002001549050919050565b600a546001600160a01b031633146111b35760405162461bcd60e51b81526004016108e590613051565b805161103690600e90602084019061271b565b6000818152600260205260408120546001600160a01b031680610a2b5760405162461bcd60e51b815260206004820152602960248201527f4552433732313a206f776e657220717565727920666f72206e6f6e657869737460448201526832b73a103a37b5b2b760b91b60648201526084016108e5565b60006001600160a01b0382166112a85760405162461bcd60e51b815260206004820152602a60248201527f4552433732313a2062616c616e636520717565727920666f7220746865207a65604482015269726f206164647265737360b01b60648201526084016108e5565b506001600160a01b031660009081526003602052604090205490565b600a546001600160a01b031633146112ee5760405162461bcd60e51b81526004016108e590613051565b6112f86000612072565b565b600d602052600090815260409020805461131390612ee5565b80601f016020809104026020016040519081016040528092919081815260200182805461133f90612ee5565b801561138c5780601f106113615761010080835404028352916020019161138c565b820191906000526020600020905b81548152906001019060200180831161136f57829003601f168201915b505050505081565b600a546001600160a01b031633146113be5760405162461bcd60e51b81526004016108e590613051565b601080546001600160a01b0319166001600160a01b0392909216919091179055565b600a546001600160a01b0316331461140a5760405162461bcd60e51b81526004016108e590613051565b805161103690600f90602084019061271b565b606060018054610a4090612ee5565b6110363383836120c4565b6114413383611dd4565b61145d5760405162461bcd60e51b81526004016108e590613000565b610a0084848484612193565b601054600160a01b900460ff166114c25760405162461bcd60e51b815260206004820152601f60248201527f50726f6a65637420747261766572736520726f7574652064697361626c65640060448201526064016108e5565b6114cb816111c6565b6001600160a01b0316336001600160a01b0316146115175760405162461bcd60e51b81526020600482015260096024820152682737ba1037bbb732b960b91b60448201526064016108e5565b61ffff821660009081526012602052604090205434101561156b5760405162461bcd60e51b815260206004820152600e60248201526d4e6f7420656e6f7567682067617360901b60448201526064016108e5565b611574816121c6565b6040805133815261ffff841660208201529081018290527fd6b1501a149bcef6326a1a9da07174bc1472b39fc254c02c2cbeb20103a2d3529060600160405180910390a15050565b606060006115c861226d565b9050806115d48461227c565b600f6040516020016115e893929190613172565b604051602081830303815290604052915050919050565b611608816111c6565b6001600160a01b0316336001600160a01b0316146116585760405162461bcd60e51b815260206004820152600d60248201526c2737ba103a34329037bbb732b960991b60448201526064016108e5565b611661816121c6565b60408051336020820152808201839052815180820383018152606082018352601354600160f01b60808401526082808401919091528351808403909101815260a2830193849052600b5463040a7bb160e41b90945290926001926000916001600160a01b0316906340a7bb10906116e4908990309089908790899060a6016131a4565b604080518083038186803b1580156116fb57600080fd5b505afa15801561170f573d6000803e3d6000fd5b505050506040513d601f19601f820116820180604052508101906117339190613107565b509050803410156117995760405162461bcd60e51b815260206004820152602a60248201527f4d7573742073656e6420656e6f7567682076616c756520746f20636f766572206044820152696d65737361676546656560b01b60648201526084016108e5565b600b5461ffff87166000908152600d6020526040808220905162c5803160e81b81526001600160a01b039093169263c58031009234926117e4928c928b913391908b906004016131f8565b6000604051808303818588803b1580156117fd57600080fd5b505af1158015611811573d6000803e3d6000fd5b5050505050505050505050565b61ffff85166000908152600c6020526040808220905161183f908790612fe4565b90815260408051602092819003830190206001600160401b03871660009081529252902060018101549091506118c65760405162461bcd60e51b815260206004820152602660248201527f4e6f6e626c6f636b696e6752656365697665723a206e6f2073746f726564206d60448201526565737361676560d01b60648201526084016108e5565b8054821480156118f05750806001015483836040516118e69291906132d8565b6040518091039020145b61193c5760405162461bcd60e51b815260206004820152601a60248201527f4c617965725a65726f3a20696e76616c6964207061796c6f616400000000000060448201526064016108e5565b60008082556001820155604051630e1bd41160e11b81523090631c37a8229061197190899089908990899089906004016132e8565b600060405180830381600087803b15801561198b57600080fd5b505af115801561199f573d6000803e3d6000fd5b50505050505050505050565b600a546001600160a01b031633146119d55760405162461bcd60e51b81526004016108e590613051565b600b80546001600160a01b0319166001600160a01b0392909216919091179055565b600a546001600160a01b03163314611a215760405162461bcd60e51b81526004016108e590613051565b601355565b600a546001600160a01b03163314611a505760405162461bcd60e51b81526004016108e590613051565b61ffff83166000908152600d60205260409020610a0090838361279f565b600a546001600160a01b03163314611a985760405162461bcd60e51b81526004016108e590613051565b6001600160a01b038116611afd5760405162461bcd60e51b815260206004820152602660248201527f4f776e61626c653a206e6577206f776e657220697320746865207a65726f206160448201526564647265737360d01b60648201526084016108e5565b610f2a81612072565b600a546001600160a01b03163314611b305760405162461bcd60e51b81526004016108e590613051565b60108054911515600160a01b0260ff60a01b19909216919091179055565b60006001600160e01b031982166380ac58cd60e01b1480611b7f57506001600160e01b03198216635b5e139f60e01b145b80610a2b57506301ffc9a760e01b6001600160e01b0319831614610a2b565b6001600160a01b038216611bf45760405162461bcd60e51b815260206004820181905260248201527f4552433732313a206d696e7420746f20746865207a65726f206164647265737360448201526064016108e5565b6000818152600260205260409020546001600160a01b031615611c595760405162461bcd60e51b815260206004820152601c60248201527f4552433732313a20746f6b656e20616c7265616479206d696e7465640000000060448201526064016108e5565b611c6560008383612379565b6001600160a01b0382166000908152600360205260408120805460019290611c8e908490613327565b909155505060008181526002602052604080822080546001600160a01b0319166001600160a01b03861690811790915590518392907fddf252ad1be2c89b69c2b068fc378daa952ba7f163c4a11628f55a4df523b3ef908290a45050565b600081815260046020526040902080546001600160a01b0319166001600160a01b0384169081179091558190611d21826111c6565b6001600160a01b03167f8c5be1e5ebec7d5bd14f71427d1e84f3dd0314c0f7b2291e5b200ac8c7c3b92560405160405180910390a45050565b60008082806020019051810190611d71919061333f565b91509150611d7f8282612431565b6040805161ffff881681526001600160a01b03841660208201529081018290527f1046a24c098e44fbda12f8600bd37cb06b6f2e48354350ae51621d09b3b5a9059060600160405180910390a1505050505050565b6000818152600260205260408120546001600160a01b0316611e4d5760405162461bcd60e51b815260206004820152602c60248201527f4552433732313a206f70657261746f7220717565727920666f72206e6f6e657860448201526b34b9ba32b73a103a37b5b2b760a11b60648201526084016108e5565b6000611e58836111c6565b9050806001600160a01b0316846001600160a01b03161480611e9f57506001600160a01b0380821660009081526005602090815260408083209388168352929052205460ff165b80611ec35750836001600160a01b0316611eb884610ac3565b6001600160a01b0316145b949350505050565b826001600160a01b0316611ede826111c6565b6001600160a01b031614611f425760405162461bcd60e51b815260206004820152602560248201527f4552433732313a207472616e736665722066726f6d20696e636f72726563742060448201526437bbb732b960d91b60648201526084016108e5565b6001600160a01b038216611fa45760405162461bcd60e51b8152602060048201526024808201527f4552433732313a207472616e7366657220746f20746865207a65726f206164646044820152637265737360e01b60648201526084016108e5565b611faf838383612379565b611fba600082611cec565b6001600160a01b0383166000908152600360205260408120805460019290611fe390849061336d565b90915550506001600160a01b0382166000908152600360205260408120805460019290612011908490613327565b909155505060008181526002602052604080822080546001600160a01b0319166001600160a01b0386811691821790925591518493918716917fddf252ad1be2c89b69c2b068fc378daa952ba7f163c4a11628f55a4df523b3ef91a4505050565b600a80546001600160a01b038381166001600160a01b0319831681179093556040519116919082907f8be0079c531659141344cd1fd0a4f28419497f9722a3daafe3b4186f6b6457e090600090a35050565b816001600160a01b0316836001600160a01b031614156121265760405162461bcd60e51b815260206004820152601960248201527f4552433732313a20617070726f766520746f2063616c6c65720000000000000060448201526064016108e5565b6001600160a01b03838116600081815260056020908152604080832094871680845294825291829020805460ff191686151590811790915591519182527f17307eab39ab6107e8899845ad3d59bd9653f200f220920489ca2b5937696c31910160405180910390a3505050565b61219e848484611ecb565b6121aa8484848461244b565b610a005760405162461bcd60e51b81526004016108e590613384565b60006121d1826111c6565b90506121df81600084612379565b6121ea600083611cec565b6001600160a01b038116600090815260036020526040812080546001929061221390849061336d565b909155505060008281526002602052604080822080546001600160a01b0319169055518391906001600160a01b038416907fddf252ad1be2c89b69c2b068fc378daa952ba7f163c4a11628f55a4df523b3ef908390a45050565b6060600e8054610a4090612ee5565b6060816122a05750506040805180820190915260018152600360fc1b602082015290565b8160005b81156122ca57806122b481613157565b91506122c39050600a836133ec565b91506122a4565b6000816001600160401b038111156122e4576122e461283f565b6040519080825280601f01601f19166020018201604052801561230e576020820181803683370190505b5090505b8415611ec35761232360018361336d565b9150612330600a86613400565b61233b906030613327565b60f81b8183815181106123505761235061312b565b60200101906001600160f81b031916908160001a905350612372600a866133ec565b9450612312565b6001600160a01b0383166123d4576123cf81600880546000838152600960205260408120829055600182018355919091527ff3f7a9fe364faab93b216da50a3214154f22a0a2b415b23a84c8169e8b636ee30155565b6123f7565b816001600160a01b0316836001600160a01b0316146123f7576123f78382612558565b6001600160a01b03821661240e57610c1e816125f5565b826001600160a01b0316826001600160a01b031614610c1e57610c1e82826126a4565b6110368282604051806020016040528060008152506126e8565b60006001600160a01b0384163b1561254d57604051630a85bd0160e11b81526001600160a01b0385169063150b7a029061248f903390899088908890600401613414565b602060405180830381600087803b1580156124a957600080fd5b505af19250505080156124d9575060408051601f3d908101601f191682019092526124d691810190613451565b60015b612533573d808015612507576040519150601f19603f3d011682016040523d82523d6000602084013e61250c565b606091505b50805161252b5760405162461bcd60e51b81526004016108e590613384565b805181602001fd5b6001600160e01b031916630a85bd0160e11b149050611ec3565b506001949350505050565b600060016125658461123d565b61256f919061336d565b6000838152600760205260409020549091508082146125c2576001600160a01b03841660009081526006602090815260408083208584528252808320548484528184208190558352600790915290208190555b5060009182526007602090815260408084208490556001600160a01b039094168352600681528383209183525290812055565b6008546000906126079060019061336d565b6000838152600960205260408120546008805493945090928490811061262f5761262f61312b565b9060005260206000200154905080600883815481106126505761265061312b565b60009182526020808320909101929092558281526009909152604080822084905585825281205560088054806126885761268861346e565b6001900381819060005260206000200160009055905550505050565b60006126af8361123d565b6001600160a01b039093166000908152600660209081526040808320868452825280832085905593825260079052919091209190915550565b6126f28383611b9e565b6126ff600084848461244b565b610c1e5760405162461bcd60e51b81526004016108e590613384565b82805461272790612ee5565b90600052602060002090601f016020900481019282612749576000855561278f565b82601f1061276257805160ff191683800117855561278f565b8280016001018555821561278f579182015b8281111561278f578251825591602001919060010190612774565b5061279b929150612813565b5090565b8280546127ab90612ee5565b90600052602060002090601f0160209004810192826127cd576000855561278f565b82601f106127e65782800160ff1982351617855561278f565b8280016001018555821561278f579182015b8281111561278f5782358255916020019190600101906127f8565b5b8082111561279b5760008155600101612814565b803561ffff8116811461283a57600080fd5b919050565b634e487b7160e01b600052604160045260246000fd5b60006001600160401b038084111561286f5761286f61283f565b604051601f8501601f19908116603f011681019082821181831017156128975761289761283f565b816040528093508581528686860111156128b057600080fd5b858560208301376000602087830101525050509392505050565b600082601f8301126128db57600080fd5b6128ea83833560208501612855565b9392505050565b80356001600160401b038116811461283a57600080fd5b6000806000806080858703121561291e57600080fd5b61292785612828565b935060208501356001600160401b038082111561294357600080fd5b61294f888389016128ca565b945061295d604088016128f1565b9350606087013591508082111561297357600080fd5b50612980878288016128ca565b91505092959194509250565b6001600160e01b031981168114610f2a57600080fd5b6000602082840312156129b457600080fd5b81356128ea8161298c565b60005b838110156129da5781810151838201526020016129c2565b83811115610a005750506000910152565b60008151808452612a038160208601602086016129bf565b601f01601f19169290920160200192915050565b6020815260006128ea60208301846129eb565b600060208284031215612a3c57600080fd5b5035919050565b6001600160a01b0381168114610f2a57600080fd5b600080600060608486031215612a6d57600080fd5b833592506020840135612a7f81612a43565b929592945050506040919091013590565b60008060408385031215612aa357600080fd5b8235612aae81612a43565b946020939093013593505050565b600080600060608486031215612ad157600080fd5b8335612adc81612a43565b92506020840135612a7f81612a43565b60008060408385031215612aff57600080fd5b612aae83612828565b60008083601f840112612b1a57600080fd5b5081356001600160401b03811115612b3157600080fd5b602083019150836020828501011115612b4957600080fd5b9250929050565b8035801515811461283a57600080fd5b600080600080600080600060a0888a031215612b7b57600080fd5b612b8488612828565b96506020880135612b9481612a43565b955060408801356001600160401b0380821115612bb057600080fd5b612bbc8b838c01612b08565b9097509550859150612bd060608b01612b50565b945060808a0135915080821115612be657600080fd5b50612bf38a828b01612b08565b989b979a50959850939692959293505050565b600060208284031215612c1857600080fd5b81356128ea81612a43565b6020808252825182820181905260009190848201906040850190845b81811015612c5b57835183529284019291840191600101612c3f565b50909695505050505050565b600060208284031215612c7957600080fd5b81356001600160401b03811115612c8f57600080fd5b8201601f81018413612ca057600080fd5b611ec384823560208401612855565b600060208284031215612cc157600080fd5b6128ea82612828565b600080600060608486031215612cdf57600080fd5b612ce884612828565b925060208401356001600160401b03811115612d0357600080fd5b612d0f868287016128ca565b925050604084013590509250925092565b60008060408385031215612d3357600080fd5b8235612d3e81612a43565b9150612d4c60208401612b50565b90509250929050565b60008060008060808587031215612d6b57600080fd5b8435612d7681612a43565b93506020850135612d8681612a43565b92506040850135915060608501356001600160401b03811115612da857600080fd5b612980878288016128ca565b600080600080600060808688031215612dcc57600080fd5b612dd586612828565b945060208601356001600160401b0380821115612df157600080fd5b612dfd89838a016128ca565b9550612e0b604089016128f1565b94506060880135915080821115612e2157600080fd5b50612e2e88828901612b08565b969995985093965092949392505050565b60008060408385031215612e5257600080fd5b8235612e5d81612a43565b91506020830135612e6d81612a43565b809150509250929050565b600080600060408486031215612e8d57600080fd5b612e9684612828565b925060208401356001600160401b03811115612eb157600080fd5b612ebd86828701612b08565b9497909650939450505050565b600060208284031215612edc57600080fd5b6128ea82612b50565b600181811c90821680612ef957607f821691505b60208210811415612f1a57634e487b7160e01b600052602260045260246000fd5b50919050565b60008154612f2d81612ee5565b60018281168015612f455760018114612f5657612f85565b60ff19841687528287019450612f85565b8560005260208060002060005b85811015612f7c5781548a820152908401908201612f63565b50505082870194505b5050505092915050565b60006128ea8284612f20565b61ffff85168152608060208201526000612fb860808301866129eb565b6001600160401b03851660408401528281036060840152612fd981856129eb565b979650505050505050565b60008251612ff68184602087016129bf565b9190910192915050565b60208082526031908201527f4552433732313a207472616e736665722063616c6c6572206973206e6f74206f6040820152701ddb995c881b9bdc88185c1c1c9bdd9959607a1b606082015260800190565b6020808252818101527f4f776e61626c653a2063616c6c6572206973206e6f7420746865206f776e6572604082015260600190565b81835281816020850137506000828201602090810191909152601f909101601f19169091010190565b61ffff881681526001600160a01b038716602082015260a0604082018190526000906130de9083018789613086565b851515606084015282810360808401526130f9818587613086565b9a9950505050505050505050565b6000806040838503121561311a57600080fd5b505080516020909101519092909150565b634e487b7160e01b600052603260045260246000fd5b634e487b7160e01b600052601160045260246000fd5b600060001982141561316b5761316b613141565b5060010190565b600084516131848184602089016129bf565b8451908301906131988183602089016129bf565b612fd981830186612f20565b61ffff861681526001600160a01b038516602082015260a0604082018190526000906131d2908301866129eb565b841515606084015282810360808401526131ec81856129eb565b98975050505050505050565b61ffff871681526000602060c0818401526000885461321681612ee5565b8060c087015260e0600180841660008114613238576001811461324d5761327b565b60ff198516898401526101008901955061327b565b8d6000528660002060005b858110156132735781548b8201860152908301908801613258565b8a0184019650505b5050505050838103604085015261329281896129eb565b9150506132aa60608401876001600160a01b03169052565b6001600160a01b038516608084015282810360a08401526132cb81856129eb565b9998505050505050505050565b8183823760009101908152919050565b61ffff8616815260806020820152600061330560808301876129eb565b6001600160401b038616604084015282810360608401526131ec818587613086565b6000821982111561333a5761333a613141565b500190565b6000806040838503121561335257600080fd5b825161335d81612a43565b6020939093015192949293505050565b60008282101561337f5761337f613141565b500390565b60208082526032908201527f4552433732313a207472616e7366657220746f206e6f6e20455243373231526560408201527131b2b4bb32b91034b6b83632b6b2b73a32b960711b606082015260800190565b634e487b7160e01b600052601260045260246000fd5b6000826133fb576133fb6133d6565b500490565b60008261340f5761340f6133d6565b500690565b6001600160a01b0385811682528416602082015260408101839052608060608201819052600090613447908301846129eb565b9695505050505050565b60006020828403121561346357600080fd5b81516128ea8161298c565b634e487b7160e01b600052603160045260246000fdfea2646970667358221220937c501798fd040299343e4914e5343e5f969df914f1307d03b6ab87804e9a4464736f6c63430008090033",
  "linkReferences": {},
  "deployedLinkReferences": {}
}